:1000000012C02AC029C028C027C026C025C024C0CD
:1000100023C022C021C020C01FC020C01DC01CC0E2
:100020001BC01AC019C011241FBECFEDCDBF10E0F8
:10003000A0E6B0E0EEE9F1E002C005900D92A03735
:10004000B107D9F720E0A0E7B0E001C01D92A337C7
:10005000B207E1F762D0A1C0D3CF08951F920F92EB
:100060000FB60F9211242F933F934F935F936F938B
:100070007F938F939F93AF93BF93EF93FF93C39817
:10008000C29880917200882349F0E0917100F0E0FD
:10009000E05AFF4F808124D0C29A08C0E0917000DE
:1000A000F0E0E05AFF4F80811BD0C39A909172001C
:1000B00081E0892780937200FF91EF91BF91AF910A
:1000C0009F918F917F916F915F914F913F912F9170
:1000D0000F900FBE0F901F901895B89AC09A089570
:1000E000C09812D0C09A089587B3806C87BBBD9822
:1000F0008DB188618DB9089587B3806C87BBBD9839
:100100008DB188618DB908958FB980E48EB97699E3
:1001100002C0689AFCCF8FB108951ABA8E9A88B33C
:1001200088BBC49A87B387BBBC9A12BAE5DFD5DF18
:1001300080B7826080BF83B7856083BF8DE790E022
:100140009BBD8ABD89B7816089BF789420E040E477
:100150003AE082B3842782BB5FE986E891E05150A0
:1001600080409040E1F700C000002F5F243608F087
:1001700020E0822F632F05D0809371009093700050
:10018000E8CF991B79E004C0991F961708F0961BD9
:0E019000881F7A95C9F780950895F894FFCFDF
:10019E0018DE3454D25111D81050FF000000000068
:00000001FF
